{
  "_format": "hh3-artifact-1",
  "contractName": "Oracle",
  "sourceName": "contracts/Oracle.sol",
  "abi": [
    {
      "inputs": [
        {
          "internalType": "string",
          "name": "_apiUrl",
          "type": "string"
        },
        {
          "internalType": "string",
          "name": "_updateInterval",
          "type": "string"
        }
      ],
      "stateMutability": "nonpayable",
      "type": "constructor"
    },
    {
      "anonymous": false,
      "inputs": [
        {
          "indexed": false,
          "internalType": "string",
          "name": "newData",
          "type": "string"
        },
        {
          "indexed": false,
          "internalType": "uint256",
          "name": "timestamp",
          "type": "uint256"
        },
        {
          "indexed": false,
          "internalType": "bytes32",
          "name": "txHash",
          "type": "bytes32"
        }
      ],
      "name": "DataUpdated",
      "type": "event"
    },
    {
      "anonymous": false,
      "inputs": [
        {
          "indexed": false,
          "internalType": "bytes32",
          "name": "txHash",
          "type": "bytes32"
        }
      ],
      "name": "VerificationAdded",
      "type": "event"
    },
    {
      "inputs": [],
      "name": "MASTER_WALLET",
      "outputs": [
        {
          "internalType": "address",
          "name": "",
          "type": "address"
        }
      ],
      "stateMutability": "view",
      "type": "function"
    },
    {
      "inputs": [],
      "name": "apiUrl",
      "outputs": [
        {
          "internalType": "string",
          "name": "",
          "type": "string"
        }
      ],
      "stateMutability": "view",
      "type": "function"
    },
    {
      "inputs": [],
      "name": "createdBy",
      "outputs": [
        {
          "internalType": "address",
          "name": "",
          "type": "address"
        }
      ],
      "stateMutability": "view",
      "type": "function"
    },
    {
      "inputs": [],
      "name": "dynamicData",
      "outputs": [
        {
          "internalType": "string",
          "name": "",
          "type": "string"
        }
      ],
      "stateMutability": "view",
      "type": "function"
    },
    {
      "inputs": [],
      "name": "getCurrentData",
      "outputs": [
        {
          "internalType": "string",
          "name": "",
          "type": "string"
        }
      ],
      "stateMutability": "view",
      "type": "function"
    },
    {
      "inputs": [],
      "name": "getOracleInfo",
      "outputs": [
        {
          "internalType": "address",
          "name": "creator",
          "type": "address"
        },
        {
          "internalType": "string",
          "name": "url",
          "type": "string"
        },
        {
          "internalType": "string",
          "name": "interval",
          "type": "string"
        },
        {
          "internalType": "uint256",
          "name": "lastUpdate",
          "type": "uint256"
        }
      ],
      "stateMutability": "view",
      "type": "function"
    },
    {
      "inputs": [
        {
          "internalType": "uint256",
          "name": "index",
          "type": "uint256"
        }
      ],
      "name": "getVerification",
      "outputs": [
        {
          "components": [
            {
              "internalType": "bytes32",
              "name": "txHash",
              "type": "bytes32"
            },
            {
              "internalType": "string",
              "name": "data",
              "type": "string"
            }
          ],
          "internalType": "struct Oracle.Verification",
          "name": "",
          "type": "tuple"
        }
      ],
      "stateMutability": "view",
      "type": "function"
    },
    {
      "inputs": [],
      "name": "getVerificationCount",
      "outputs": [
        {
          "internalType": "uint256",
          "name": "",
          "type": "uint256"
        }
      ],
      "stateMutability": "view",
      "type": "function"
    },
    {
      "inputs": [],
      "name": "getVerifications",
      "outputs": [
        {
          "components": [
            {
              "internalType": "bytes32",
              "name": "txHash",
              "type": "bytes32"
            },
            {
              "internalType": "string",
              "name": "data",
              "type": "string"
            }
          ],
          "internalType": "struct Oracle.Verification[]",
          "name": "",
          "type": "tuple[]"
        }
      ],
      "stateMutability": "view",
      "type": "function"
    },
    {
      "inputs": [],
      "name": "isValidated",
      "outputs": [
        {
          "internalType": "bool",
          "name": "",
          "type": "bool"
        }
      ],
      "stateMutability": "view",
      "type": "function"
    },
    {
      "inputs": [],
      "name": "lastUpdateTime",
      "outputs": [
        {
          "internalType": "uint256",
          "name": "",
          "type": "uint256"
        }
      ],
      "stateMutability": "view",
      "type": "function"
    },
    {
      "inputs": [
        {
          "internalType": "string",
          "name": "_newData",
          "type": "string"
        }
      ],
      "name": "updateData",
      "outputs": [],
      "stateMutability": "nonpayable",
      "type": "function"
    },
    {
      "inputs": [],
      "name": "updateInterval",
      "outputs": [
        {
          "internalType": "string",
          "name": "",
          "type": "string"
        }
      ],
      "stateMutability": "view",
      "type": "function"
    },
    {
      "inputs": [
        {
          "internalType": "uint256",
          "name": "",
          "type": "uint256"
        }
      ],
      "name": "verifications",
      "outputs": [
        {
          "internalType": "bytes32",
          "name": "txHash",
          "type": "bytes32"
        },
        {
          "internalType": "string",
          "name": "data",
          "type": "string"
        }
      ],
      "stateMutability": "view",
      "type": "function"
    }
  ],
  "bytecode": "0x608060405234801561000f575f5ffd5b50604051611b29380380611b29833981810160405281019061003191906101e4565b335f5f6101000a81548173ffffffffffffffffffffffffffffffffffffffff021916908373ffffffffffffffffffffffffffffffffffffffff160217905550816001908161007f919061046a565b50806002908161008f919061046a565b505050610539565b5f604051905090565b5f5ffd5b5f5ffd5b5f5ffd5b5f5ffd5b5f601f19601f8301169050919050565b7f4e487b71000000000000000000000000000000000000000000000000000000005f52604160045260245ffd5b6100f6826100b0565b810181811067ffffffffffffffff82111715610115576101146100c0565b5b80604052505050565b5f610127610097565b905061013382826100ed565b919050565b5f67ffffffffffffffff821115610152576101516100c0565b5b61015b826100b0565b9050602081019050919050565b8281835e5f83830152505050565b5f61018861018384610138565b61011e565b9050828152602081018484840111156101a4576101a36100ac565b5b6101af848285610168565b509392505050565b5f82601f8301126101cb576101ca6100a8565b5b81516101db848260208601610176565b91505092915050565b5f5f604083850312156101fa576101f96100a0565b5b5f83015167ffffffffffffffff811115610217576102166100a4565b5b610223858286016101b7565b925050602083015167ffffffffffffffff811115610244576102436100a4565b5b610250858286016101b7565b9150509250929050565b5f81519050919050565b7f4e487b71000000000000000000000000000000000000000000000000000000005f52602260045260245ffd5b5f60028204905060018216806102a857607f821691505b6020821081036102bb576102ba610264565b5b50919050565b5f819050815f5260205f209050919050565b5f6020601f8301049050919050565b5f82821b905092915050565b5f6008830261031d7fffffffffffffffffffffffffffffffffffffffffffffffffffffffffffffffff826102e2565b61032786836102e2565b95508019841693508086168417925050509392505050565b5f819050919050565b5f819050919050565b5f61036b6103666103618461033f565b610348565b61033f565b9050919050565b5f819050919050565b61038483610351565b61039861039082610372565b8484546102ee565b825550505050565b5f5f905090565b6103af6103a0565b6103ba81848461037b565b505050565b5b818110156103dd576103d25f826103a7565b6001810190506103c0565b5050565b601f821115610422576103f3816102c1565b6103fc846102d3565b8101602085101561040b578190505b61041f610417856102d3565b8301826103bf565b50505b505050565b5f82821c905092915050565b5f6104425f1984600802610427565b1980831691505092915050565b5f61045a8383610433565b9150826002028217905092915050565b6104738261025a565b67ffffffffffffffff81111561048c5761048b6100c0565b5b6104968254610291565b6104a18282856103e1565b5f60209050601f8311600181146104d2575f84156104c0578287015190505b6104ca858261044f565b865550610531565b601f1984166104e0866102c1565b5f5b82811015610507578489015182556001820191506020850194506020810190506104e2565b868310156105245784890151610520601f891682610433565b8355505b6001600288020188555050505b505050505050565b6115e3806105465f395ff3fe608060405234801561000f575f5ffd5b50600436106100e8575f3560e01c806368446ead1161008a5780639c84cd10116100645780639c84cd1014610228578063b90b0a1014610249578063c8f33c911461027a578063fd2c80ae14610298576100e8565b806368446ead146101d0578063770b5414146101ec5780638367e1201461020a576100e8565b80633c2c4b5e116100c65780633c2c4b5e14610146578063414eb8141461016457806358937cc8146101825780635a0a4a64146101b2576100e8565b80631f05b374146100ec578063285fe7281461010a5780633a5673a414610128575b5f5ffd5b6100f46102b6565b6040516101019190610b28565b60405180910390f35b6101126102c2565b60405161011f9190610cbe565b60405180910390f35b6101306103b7565b60405161013d9190610d1d565b60405180910390f35b61014e6103db565b60405161015b9190610d1d565b60405180910390f35b61016c6103f3565b6040516101799190610d50565b60405180910390f35b61019c60048036038101906101979190610da4565b610405565b6040516101a99190610e09565b60405180910390f35b6101ba61051f565b6040516101c79190610e71565b60405180910390f35b6101ea60048036038101906101e59190610fbd565b6105ab565b005b6101f4610745565b6040516102019190610e71565b60405180910390f35b6102126107d5565b60405161021f9190610e71565b60405180910390f35b610230610861565b6040516102409493929190611004565b60405180910390f35b610263600480360381019061025e9190610da4565b6109b0565b604051610271929190611064565b60405180910390f35b610282610a65565b60405161028f9190610b28565b60405180910390f35b6102a0610a6b565b6040516102ad9190610e71565b60405180910390f35b5f600480549050905090565b60606004805480602002602001604051908101604052809291908181526020015f905b828210156103ae578382905f5260205f2090600202016040518060400160405290815f820154815260200160018201805461031f906110bf565b80601f016020809104026020016040519081016040528092919081815260200182805461034b906110bf565b80156103965780601f1061036d57610100808354040283529160200191610396565b820191905f5260205f20905b81548152906001019060200180831161037957829003601f168201915b505050505081525050815260200190600101906102e5565b50505050905090565b5f5f9054906101000a900473ffffffffffffffffffffffffffffffffffffffff1681565b73f739af0c0cc448b41c47cc38070f10a0b4be50b481565b60065f9054906101000a900460ff1681565b61040d610af7565b6004805490508210610454576040517f08c379a000000000000000000000000000000000000000000000000000000000815260040161044b90611139565b60405180910390fd5b6004828154811061046857610467611157565b5b905f5260205f2090600202016040518060400160405290815f8201548152602001600182018054610498906110bf565b80601f01602080910402602001604051908101604052809291908181526020018280546104c4906110bf565b801561050f5780601f106104e65761010080835404028352916020019161050f565b820191905f5260205f20905b8154815290600101906020018083116104f257829003601f168201915b5050505050815250509050919050565b6003805461052c906110bf565b80601f0160208091040260200160405190810160405280929190818152602001828054610558906110bf565b80156105a35780601f1061057a576101008083540402835291602001916105a3565b820191905f5260205f20905b81548152906001019060200180831161058657829003601f168201915b505050505081565b73f739af0c0cc448b41c47cc38070f10a0b4be50b473ffffffffffffffffffffffffffffffffffffffff163373ffffffffffffffffffffffffffffffffffffffff161461062d576040517f08c379a0000000000000000000000000000000000000000000000000000000008152600401610624906111f4565b60405180910390fd5b806003908161063c91906113b2565b50426005819055505f42338360405160200161065a93929190611520565b6040516020818303038152906040528051906020012090506004604051806040016040528083815260200184815250908060018154018082558091505060019003905f5260205f2090600202015f909190919091505f820151815f015560208201518160010190816106cc91906113b2565b5050507fda6534cad381de22d441132bfb647494baa819b2d2157dcbba4a01805a34916d82428360405161070293929190611558565b60405180910390a17fe5e54ce28e9c64207399d6313017df697d513efd17c6fd21b32ea2ad86de2029816040516107399190611594565b60405180910390a15050565b606060038054610754906110bf565b80601f0160208091040260200160405190810160405280929190818152602001828054610780906110bf565b80156107cb5780601f106107a2576101008083540402835291602001916107cb565b820191905f5260205f20905b8154815290600101906020018083116107ae57829003601f168201915b5050505050905090565b600180546107e2906110bf565b80601f016020809104026020016040519081016040528092919081815260200182805461080e906110bf565b80156108595780601f1061083057610100808354040283529160200191610859565b820191905f5260205f20905b81548152906001019060200180831161083c57829003601f168201915b505050505081565b5f6060805f5f5f9054906101000a900473ffffffffffffffffffffffffffffffffffffffff166001600260055482805461089a906110bf565b80601f01602080910402602001604051908101604052809291908181526020018280546108c6906110bf565b80156109115780601f106108e857610100808354040283529160200191610911565b820191905f5260205f20905b8154815290600101906020018083116108f457829003601f168201915b50505050509250818054610924906110bf565b80601f0160208091040260200160405190810160405280929190818152602001828054610950906110bf565b801561099b5780601f106109725761010080835404028352916020019161099b565b820191905f5260205f20905b81548152906001019060200180831161097e57829003601f168201915b50505050509150935093509350935090919293565b600481815481106109bf575f80fd5b905f5260205f2090600202015f91509050805f0154908060010180546109e4906110bf565b80601f0160208091040260200160405190810160405280929190818152602001828054610a10906110bf565b8015610a5b5780601f10610a3257610100808354040283529160200191610a5b565b820191905f5260205f20905b815481529060010190602001808311610a3e57829003601f168201915b5050505050905082565b60055481565b60028054610a78906110bf565b80601f0160208091040260200160405190810160405280929190818152602001828054610aa4906110bf565b8015610aef5780601f10610ac657610100808354040283529160200191610aef565b820191905f5260205f20905b815481529060010190602001808311610ad257829003601f168201915b505050505081565b60405180604001604052805f8152602001606081525090565b5f819050919050565b610b2281610b10565b82525050565b5f602082019050610b3b5f830184610b19565b92915050565b5f81519050919050565b5f82825260208201905092915050565b5f819050602082019050919050565b5f819050919050565b610b7c81610b6a565b82525050565b5f81519050919050565b5f82825260208201905092915050565b8281835e5f83830152505050565b5f601f19601f8301169050919050565b5f610bc482610b82565b610bce8185610b8c565b9350610bde818560208601610b9c565b610be781610baa565b840191505092915050565b5f604083015f830151610c075f860182610b73565b5060208301518482036020860152610c1f8282610bba565b9150508091505092915050565b5f610c378383610bf2565b905092915050565b5f602082019050919050565b5f610c5582610b41565b610c5f8185610b4b565b935083602082028501610c7185610b5b565b805f5b85811015610cac5784840389528151610c8d8582610c2c565b9450610c9883610c3f565b925060208a01995050600181019050610c74565b50829750879550505050505092915050565b5f6020820190508181035f830152610cd68184610c4b565b905092915050565b5f73ffffffffffffffffffffffffffffffffffffffff82169050919050565b5f610d0782610cde565b9050919050565b610d1781610cfd565b82525050565b5f602082019050610d305f830184610d0e565b92915050565b5f8115159050919050565b610d4a81610d36565b82525050565b5f602082019050610d635f830184610d41565b92915050565b5f604051905090565b5f5ffd5b5f5ffd5b610d8381610b10565b8114610d8d575f5ffd5b50565b5f81359050610d9e81610d7a565b92915050565b5f60208284031215610db957610db8610d72565b5b5f610dc684828501610d90565b91505092915050565b5f604083015f830151610de45f860182610b73565b5060208301518482036020860152610dfc8282610bba565b9150508091505092915050565b5f6020820190508181035f830152610e218184610dcf565b905092915050565b5f82825260208201905092915050565b5f610e4382610b82565b610e4d8185610e29565b9350610e5d818560208601610b9c565b610e6681610baa565b840191505092915050565b5f6020820190508181035f830152610e898184610e39565b905092915050565b5f5ffd5b5f5ffd5b7f4e487b71000000000000000000000000000000000000000000000000000000005f52604160045260245ffd5b610ecf82610baa565b810181811067ffffffffffffffff82111715610eee57610eed610e99565b5b80604052505050565b5f610f00610d69565b9050610f0c8282610ec6565b919050565b5f67ffffffffffffffff821115610f2b57610f2a610e99565b5b610f3482610baa565b9050602081019050919050565b828183375f83830152505050565b5f610f61610f5c84610f11565b610ef7565b905082815260208101848484011115610f7d57610f7c610e95565b5b610f88848285610f41565b509392505050565b5f82601f830112610fa457610fa3610e91565b5b8135610fb4848260208601610f4f565b91505092915050565b5f60208284031215610fd257610fd1610d72565b5b5f82013567ffffffffffffffff811115610fef57610fee610d76565b5b610ffb84828501610f90565b91505092915050565b5f6080820190506110175f830187610d0e565b81810360208301526110298186610e39565b9050818103604083015261103d8185610e39565b905061104c6060830184610b19565b95945050505050565b61105e81610b6a565b82525050565b5f6040820190506110775f830185611055565b81810360208301526110898184610e39565b90509392505050565b7f4e487b71000000000000000000000000000000000000000000000000000000005f52602260045260245ffd5b5f60028204905060018216806110d657607f821691505b6020821081036110e9576110e8611092565b5b50919050565b7f496e646578206f7574206f6620626f756e6473000000000000000000000000005f82015250565b5f611123601383610e29565b915061112e826110ef565b602082019050919050565b5f6020820190508181035f83015261115081611117565b9050919050565b7f4e487b71000000000000000000000000000000000000000000000000000000005f52603260045260245ffd5b7f4f6e6c79206d61737465722077616c6c65742063616e2063616c6c20746869735f8201527f2066756e6374696f6e0000000000000000000000000000000000000000000000602082015250565b5f6111de602983610e29565b91506111e982611184565b604082019050919050565b5f6020820190508181035f83015261120b816111d2565b9050919050565b5f819050815f5260205f209050919050565b5f6020601f8301049050919050565b5f82821b905092915050565b5f6008830261126e7fffffffffffffffffffffffffffffffffffffffffffffffffffffffffffffffff82611233565b6112788683611233565b95508019841693508086168417925050509392505050565b5f819050919050565b5f6112b36112ae6112a984610b10565b611290565b610b10565b9050919050565b5f819050919050565b6112cc83611299565b6112e06112d8826112ba565b84845461123f565b825550505050565b5f5f905090565b6112f76112e8565b6113028184846112c3565b505050565b5b818110156113255761131a5f826112ef565b600181019050611308565b5050565b601f82111561136a5761133b81611212565b61134484611224565b81016020851015611353578190505b61136761135f85611224565b830182611307565b50505b505050565b5f82821c905092915050565b5f61138a5f198460080261136f565b1980831691505092915050565b5f6113a2838361137b565b9150826002028217905092915050565b6113bb82610b82565b67ffffffffffffffff8111156113d4576113d3610e99565b5b6113de82546110bf565b6113e9828285611329565b5f60209050601f83116001811461141a575f8415611408578287015190505b6114128582611397565b865550611479565b601f19841661142886611212565b5f5b8281101561144f5784890151825560018201915060208501945060208101905061142a565b8683101561146c5784890151611468601f89168261137b565b8355505b6001600288020188555050505b505050505050565b5f819050919050565b61149b61149682610b10565b611481565b82525050565b5f8160601b9050919050565b5f6114b7826114a1565b9050919050565b5f6114c8826114ad565b9050919050565b6114e06114db82610cfd565b6114be565b82525050565b5f81905092915050565b5f6114fa82610b82565b61150481856114e6565b9350611514818560208601610b9c565b80840191505092915050565b5f61152b828661148a565b60208201915061153b82856114cf565b60148201915061154b82846114f0565b9150819050949350505050565b5f6060820190508181035f8301526115708186610e39565b905061157f6020830185610b19565b61158c6040830184611055565b949350505050565b5f6020820190506115a75f830184611055565b9291505056fea2646970667358221220d3cce0000efef15602c584c06039145ae61832ed877a1529360b3fae88f3c5f064736f6c634300081c0033",
  "linkReferences": {},
  "deployedLinkReferences": {},
  "immutableReferences": {},
  "inputSourceName": "project/contracts/Oracle.sol",
  "buildInfoId": "solc-0_8_28-79f730bb482a39d5d53736d8382ff2ae10b2c1e2"
}